{
  "contractName": "FlightSuretyData",
  "abi": [
    {
      "inputs": [
        {
          "name": "addr",
          "type": "address"
        }
      ],
      "payable": false,
      "stateMutability": "nonpayable",
      "type": "constructor"
    },
    {
      "payable": true,
      "stateMutability": "payable",
      "type": "fallback"
    },
    {
      "anonymous": false,
      "inputs": [
        {
          "indexed": false,
          "name": "airline",
          "type": "address"
        },
        {
          "indexed": false,
          "name": "name",
          "type": "string"
        }
      ],
      "name": "RegisterAirline",
      "type": "event"
    },
    {
      "anonymous": false,
      "inputs": [
        {
          "indexed": false,
          "name": "flight",
          "type": "bytes32"
        },
        {
          "indexed": false,
          "name": "insuree",
          "type": "address"
        }
      ],
      "name": "BuyFlightInsurance",
      "type": "event"
    },
    {
      "anonymous": false,
      "inputs": [
        {
          "indexed": false,
          "name": "flight",
          "type": "bytes32"
        },
        {
          "indexed": false,
          "name": "insuree",
          "type": "address"
        }
      ],
      "name": "InsurancePayout",
      "type": "event"
    },
    {
      "anonymous": false,
      "inputs": [
        {
          "indexed": false,
          "name": "airline",
          "type": "address"
        }
      ],
      "name": "FundAirline",
      "type": "event"
    },
    {
      "constant": true,
      "inputs": [],
      "name": "isOperational",
      "outputs": [
        {
          "name": "",
          "type": "bool"
        }
      ],
      "payable": false,
      "stateMutability": "view",
      "type": "function"
    },
    {
      "constant": false,
      "inputs": [
        {
          "name": "mode",
          "type": "bool"
        }
      ],
      "name": "setOperatingStatus",
      "outputs": [],
      "payable": false,
      "stateMutability": "nonpayable",
      "type": "function"
    },
    {
      "constant": false,
      "inputs": [
        {
          "name": "caller",
          "type": "address"
        }
      ],
      "name": "authorizeCaller",
      "outputs": [],
      "payable": false,
      "stateMutability": "nonpayable",
      "type": "function"
    },
    {
      "constant": false,
      "inputs": [
        {
          "name": "addr",
          "type": "address"
        },
        {
          "name": "name",
          "type": "string"
        },
        {
          "name": "register",
          "type": "bool"
        }
      ],
      "name": "_registerAirline",
      "outputs": [],
      "payable": false,
      "stateMutability": "nonpayable",
      "type": "function"
    },
    {
      "constant": false,
      "inputs": [
        {
          "name": "addr",
          "type": "address"
        },
        {
          "name": "register",
          "type": "bool"
        }
      ],
      "name": "_updateAirlineIsRegistered",
      "outputs": [],
      "payable": false,
      "stateMutability": "nonpayable",
      "type": "function"
    },
    {
      "constant": true,
      "inputs": [
        {
          "name": "caller",
          "type": "address"
        }
      ],
      "name": "isAirline",
      "outputs": [
        {
          "name": "success",
          "type": "bool"
        }
      ],
      "payable": false,
      "stateMutability": "view",
      "type": "function"
    },
    {
      "constant": true,
      "inputs": [],
      "name": "_getAirlineCount",
      "outputs": [
        {
          "name": "",
          "type": "uint256"
        }
      ],
      "payable": false,
      "stateMutability": "view",
      "type": "function"
    },
    {
      "constant": true,
      "inputs": [
        {
          "name": "index",
          "type": "uint256"
        }
      ],
      "name": "_getAirlineByIndex",
      "outputs": [
        {
          "name": "",
          "type": "address"
        }
      ],
      "payable": false,
      "stateMutability": "view",
      "type": "function"
    },
    {
      "constant": true,
      "inputs": [
        {
          "name": "airline",
          "type": "address"
        }
      ],
      "name": "isAirlineFunded",
      "outputs": [
        {
          "name": "",
          "type": "bool"
        }
      ],
      "payable": false,
      "stateMutability": "view",
      "type": "function"
    },
    {
      "constant": true,
      "inputs": [
        {
          "name": "airline",
          "type": "address"
        }
      ],
      "name": "isAirlineRegistered",
      "outputs": [
        {
          "name": "",
          "type": "bool"
        }
      ],
      "payable": false,
      "stateMutability": "view",
      "type": "function"
    },
    {
      "constant": false,
      "inputs": [
        {
          "name": "flight",
          "type": "bytes32"
        },
        {
          "name": "insuree",
          "type": "address"
        }
      ],
      "name": "buy",
      "outputs": [],
      "payable": true,
      "stateMutability": "payable",
      "type": "function"
    },
    {
      "constant": true,
      "inputs": [
        {
          "name": "flight",
          "type": "bytes32"
        },
        {
          "name": "passenger",
          "type": "address"
        }
      ],
      "name": "_creditInsureeAmount",
      "outputs": [
        {
          "name": "",
          "type": "uint256"
        }
      ],
      "payable": false,
      "stateMutability": "view",
      "type": "function"
    },
    {
      "constant": false,
      "inputs": [
        {
          "name": "flight",
          "type": "bytes32"
        },
        {
          "name": "passenger",
          "type": "address"
        }
      ],
      "name": "_creditInsurees",
      "outputs": [],
      "payable": false,
      "stateMutability": "nonpayable",
      "type": "function"
    },
    {
      "constant": false,
      "inputs": [
        {
          "name": "requiredEther",
          "type": "uint256"
        },
        {
          "name": "passenger",
          "type": "address"
        }
      ],
      "name": "pay",
      "outputs": [],
      "payable": true,
      "stateMutability": "payable",
      "type": "function"
    },
    {
      "constant": false,
      "inputs": [
        {
          "name": "airline",
          "type": "address"
        }
      ],
      "name": "fundAirline",
      "outputs": [],
      "payable": true,
      "stateMutability": "payable",
      "type": "function"
    },
    {
      "constant": false,
      "inputs": [],
      "name": "fund",
      "outputs": [],
      "payable": true,
      "stateMutability": "payable",
      "type": "function"
    }
  ],
  "bytecode": "0x60806040526001600060146101000a81548160ff02191690831515021790555060006002553480156200003157600080fd5b506040516020806200287e833981018060405281019080805190602001909291905050506200005f6200028d565b336000806101000a81548173ffffffffffffffffffffffffffffffffffffffff021916908373ffffffffffffffffffffffffffffffffffffffff16021790555060a0604051908101604052808373ffffffffffffffffffffffffffffffffffffffff1681526020016040805190810160405280601481526020017f5772696768742042726f732042696379636c657300000000000000000000000081525081526020016000815260200160011515815260200160001515815250905060018290806001815401808255809150509060018203906000526020600020016000909192909190916101000a81548173ffffffffffffffffffffffffffffffffffffffff021916908373ffffffffffffffffffffffffffffffffffffffff1602179055505080600460008473ffffffffffffffffffffffffffffffffffffffff1673ffffffffffffffffffffffffffffffffffffffff16815260200190815260200160002060008201518160000160006101000a81548173ffffffffffffffffffffffffffffffffffffffff021916908373ffffffffffffffffffffffffffffffffffffffff160217905550602082015181600101908051906020019062000226929190620002d7565b506040820151816002015560608201518160030160006101000a81548160ff02191690831515021790555060808201518160030160016101000a81548160ff0219169083151502179055509050506001600260008282540192505081905550505062000386565b60a060405190810160405280600073ffffffffffffffffffffffffffffffffffffffff16815260200160608152602001600081526020016000151581526020016000151581525090565b828054600181600116156101000203166002900490600052602060002090601f016020900481019282601f106200031a57805160ff19168380011785556200034b565b828001600101855582156200034b579182015b828111156200034a5782518255916020019190600101906200032d565b5b5090506200035a91906200035e565b5090565b6200038391905b808211156200037f57600081600090555060010162000365565b5090565b90565b6124e880620003966000396000f3006080604052600436106100e6576000357c0100000000000000000000000000000000000000000000000000000000900463ffffffff168063010c5c97146100f05780630e248a111461014b578063110466ed146101a65780632484d381146101d5578063280b7c93146102425780632c388d5d146102a957806331cbf5e3146102ec57806366f933f81461032c5780636fbb87981461035757806381d13ebf1461038d578063b60d4288146103de578063c049604a146103e8578063c8843e1d1461042c578063cd905dff1461047b578063f53b6d65146104aa578063fea70c8614610505575b6100ee61056a565b005b3480156100fc57600080fd5b50610131600480360381019080803573ffffffffffffffffffffffffffffffffffffffff16906020019092919050505061056c565b604051808215151515815260200191505060405180910390f35b34801561015757600080fd5b5061018c600480360381019080803573ffffffffffffffffffffffffffffffffffffffff169060200190929190505050610674565b604051808215151515815260200191505060405180910390f35b3480156101b257600080fd5b506101d3600480360381019080803515159060200190929190505050610840565b005b3480156101e157600080fd5b5061020060048036038101908080359060200190929190505050610921565b604051808273ffffffffffffffffffffffffffffffffffffffff1673ffffffffffffffffffffffffffffffffffffffff16815260200191505060405180910390f35b34801561024e57600080fd5b506102a7600480360381019080803573ffffffffffffffffffffffffffffffffffffffff169060200190929190803590602001908201803590602001919091929391929390803515159060200190929190505050610964565b005b3480156102b557600080fd5b506102ea600480360381019080803573ffffffffffffffffffffffffffffffffffffffff169060200190929190505050610c89565b005b61032a60048036038101908080359060200190929190803573ffffffffffffffffffffffffffffffffffffffff169060200190929190505050610db6565b005b34801561033857600080fd5b50610341611035565b6040518082815260200191505060405180910390f35b61038b600480360381019080803573ffffffffffffffffffffffffffffffffffffffff16906020019092919050505061103f565b005b34801561039957600080fd5b506103dc6004803603810190808035600019169060200190929190803573ffffffffffffffffffffffffffffffffffffffff16906020019092919050505061148f565b005b6103e661056a565b005b61042a6004803603810190808035600019169060200190929190803573ffffffffffffffffffffffffffffffffffffffff1690602001909291905050506118ed565b005b34801561043857600080fd5b50610479600480360381019080803573ffffffffffffffffffffffffffffffffffffffff169060200190929190803515159060200190929190505050611d42565b005b34801561048757600080fd5b50610490612097565b604051808215151515815260200191505060405180910390f35b3480156104b657600080fd5b506104eb600480360381019080803573ffffffffffffffffffffffffffffffffffffffff1690602001909291905050506120ad565b604051808215151515815260200191505060405180910390f35b34801561051157600080fd5b506105546004803603810190808035600019169060200190929190803573ffffffffffffffffffffffffffffffffffffffff16906020019092919050505061210b565b6040518082815260200191505060405180910390f35b565b600080600060149054906101000a900460ff161515610619576040517f08c379a00000000000000000000000000000000000000000000000000000000081526004018080602001828103825260258152602001807f436f6e74726163742069732063757272656e746c79206e6f74206f706572617481526020017f696f6e616c00000000000000000000000000000000000000000000000000000081525060400191505060405180910390fd5b600460008473ffffffffffffffffffffffffffffffffffffffff1673ffffffffffffffffffffffffffffffffffffffff16815260200190815260200160002090508060030160009054906101000a900460ff16915050919050565b600061067e612393565b600460008473ffffffffffffffffffffffffffffffffffffffff1673ffffffffffffffffffffffffffffffffffffffff16815260200190815260200160002060a060405190810160405290816000820160009054906101000a900473ffffffffffffffffffffffffffffffffffffffff1673ffffffffffffffffffffffffffffffffffffffff1673ffffffffffffffffffffffffffffffffffffffff168152602001600182018054600181600116156101000203166002900480601f0160208091040260200160405190810160405280929190818152602001828054600181600116156101000203166002900480156107b85780601f1061078d576101008083540402835291602001916107b8565b820191906000526020600020905b81548152906001019060200180831161079b57829003601f168201915b50505050508152602001600282015481526020016003820160009054906101000a900460ff161515151581526020016003820160019054906101000a900460ff1615151515815250509050600073ffffffffffffffffffffffffffffffffffffffff16816000015173ffffffffffffffffffffffffffffffffffffffff161415915050919050565b6000809054906101000a900473ffffffffffffffffffffffffffffffffffffffff1673ffffffffffffffffffffffffffffffffffffffff163373ffffffffffffffffffffffffffffffffffffffff16141515610904576040517f08c379a000000000000000000000000000000000000000000000000000000000815260040180806020018281038252601c8152602001807f43616c6c6572206973206e6f7420636f6e7472616374206f776e65720000000081525060200191505060405180910390fd5b80600060146101000a81548160ff02191690831515021790555050565b600060018281548110151561093257fe5b9060005260206000200160009054906101000a900473ffffffffffffffffffffffffffffffffffffffff169050919050565b61096c612393565b600060149054906101000a900460ff161515610a16576040517f08c379a00000000000000000000000000000000000000000000000000000000081526004018080602001828103825260258152602001807f436f6e74726163742069732063757272656e746c79206e6f74206f706572617481526020017f696f6e616c00000000000000000000000000000000000000000000000000000081525060400191505060405180910390fd5b60a0604051908101604052808673ffffffffffffffffffffffffffffffffffffffff16815260200185858080601f016020809104026020016040519081016040528093929190818152602001838380828437820191505050505050815260200160008152602001831515815260200160001515815250905060018590806001815401808255809150509060018203906000526020600020016000909192909190916101000a81548173ffffffffffffffffffffffffffffffffffffffff021916908373ffffffffffffffffffffffffffffffffffffffff160217905550508115610b0c5760016002600082825401925050819055505b80600460008773ffffffffffffffffffffffffffffffffffffffff1673ffffffffffffffffffffffffffffffffffffffff16815260200190815260200160002060008201518160000160006101000a81548173ffffffffffffffffffffffffffffffffffffffff021916908373ffffffffffffffffffffffffffffffffffffffff1602179055506020820151816001019080519060200190610baf9291906123dd565b506040820151816002015560608201518160030160006101000a81548160ff02191690831515021790555060808201518160030160016101000a81548160ff0219169083151502179055509050507f99cde91801d512fa1f694645bb93e9ba7b80f7a3db52eacb0044dc7c4a85f49b858585604051808473ffffffffffffffffffffffffffffffffffffffff1673ffffffffffffffffffffffffffffffffffffffff168152602001806020018281038252848482818152602001925080828437820191505094505050505060405180910390a15050505050565b6000809054906101000a900473ffffffffffffffffffffffffffffffffffffffff1673ffffffffffffffffffffffffffffffffffffffff163373ffffffffffffffffffffffffffffffffffffffff16141515610d4d576040517f08c379a000000000000000000000000000000000000000000000000000000000815260040180806020018281038252601c8152602001807f43616c6c6572206973206e6f7420636f6e7472616374206f776e65720000000081525060200191505060405180910390fd5b60038190806001815401808255809150509060018203906000526020600020016000909192909190916101000a81548173ffffffffffffffffffffffffffffffffffffffff021916908373ffffffffffffffffffffffffffffffffffffffff1602179055505050565b600080600060149054906101000a900460ff161515610e63576040517f08c379a00000000000000000000000000000000000000000000000000000000081526004018080602001828103825260258152602001807f436f6e74726163742069732063757272656e746c79206e6f74206f706572617481526020017f696f6e616c00000000000000000000000000000000000000000000000000000081525060400191505060405180910390fd5b610e89610e7a60028661234890919063ffffffff16565b8561235e90919063ffffffff16565b9150816000809054906101000a900473ffffffffffffffffffffffffffffffffffffffff1673ffffffffffffffffffffffffffffffffffffffff1631111515610f60576040517f08c379a00000000000000000000000000000000000000000000000000000000081526004018080602001828103825260258152602001807f436f6e747261637420646f6573206e6f74206861766520656e6f75676820706181526020017f796f75742e00000000000000000000000000000000000000000000000000000081525060400191505060405180910390fd5b8273ffffffffffffffffffffffffffffffffffffffff168260405180602001905060006040518083038185875af192505050905080151561102f576040517f08c379a00000000000000000000000000000000000000000000000000000000081526004018080602001828103825260268152602001807f496e737572616e6365207472616e7366657220746f2070617373656e6765722081526020017f6661696c6564000000000000000000000000000000000000000000000000000081525060400191505060405180910390fd5b50505050565b6000600254905090565b611047612393565b600060149054906101000a900460ff1615156110f1576040517f08c379a00000000000000000000000000000000000000000000000000000000081526004018080602001828103825260258152602001807f436f6e74726163742069732063757272656e746c79206e6f74206f706572617481526020017f696f6e616c00000000000000000000000000000000000000000000000000000081525060400191505060405180910390fd5b600460008373ffffffffffffffffffffffffffffffffffffffff1673ffffffffffffffffffffffffffffffffffffffff16815260200190815260200160002060a060405190810160405290816000820160009054906101000a900473ffffffffffffffffffffffffffffffffffffffff1673ffffffffffffffffffffffffffffffffffffffff1673ffffffffffffffffffffffffffffffffffffffff168152602001600182018054600181600116156101000203166002900480601f01602080910402602001604051908101604052809291908181526020018280546001816001161561010002031660029004801561122b5780601f106112005761010080835404028352916020019161122b565b820191906000526020600020905b81548152906001019060200180831161120e57829003601f168201915b50505050508152602001600282015481526020016003820160009054906101000a900460ff161515151581526020016003820160019054906101000a900460ff161515151581525050905080606001511515611315576040517f08c379a00000000000000000000000000000000000000000000000000000000081526004018080602001828103825260348152602001807f4169726c696e652063616e206f6e6c792062652066756e64656420696620697481526020017f206973207265676973746572656420666972737400000000000000000000000081525060400191505060405180910390fd5b61132c34826040015161235e90919063ffffffff16565b600460008473ffffffffffffffffffffffffffffffffffffffff1673ffffffffffffffffffffffffffffffffffffffff168152602001908152602001600020600201819055506001600460008473ffffffffffffffffffffffffffffffffffffffff1673ffffffffffffffffffffffffffffffffffffffff16815260200190815260200160002060030160016101000a81548160ff0219169083151502179055506001600460008473ffffffffffffffffffffffffffffffffffffffff1673ffffffffffffffffffffffffffffffffffffffff16815260200190815260200160002060030160006101000a81548160ff0219169083151502179055507f5fe2a9a436042973ecc5f0d9c8d90ec140d77cae8dea146aa9ebb9c2022562d482604051808273ffffffffffffffffffffffffffffffffffffffff1673ffffffffffffffffffffffffffffffffffffffff16815260200191505060405180910390a15050565b606060008060149054906101000a900460ff16151561153c576040517f08c379a00000000000000000000000000000000000000000000000000000000081526004018080602001828103825260258152602001807f436f6e74726163742069732063757272656e746c79206e6f74206f706572617481526020017f696f6e616c00000000000000000000000000000000000000000000000000000081525060400191505060405180910390fd5b600660008560001916600019168152602001908152602001600020805480602002602001604051908101604052809291908181526020016000905b828210156116255783829060005260206000209060030201606060405190810160405290816000820160009054906101000a900473ffffffffffffffffffffffffffffffffffffffff1673ffffffffffffffffffffffffffffffffffffffff1673ffffffffffffffffffffffffffffffffffffffff168152602001600182015481526020016002820160009054906101000a900460ff16151515158152505081526020019060010190611577565b505050509150600090505b81518110156118e7578273ffffffffffffffffffffffffffffffffffffffff16828281518110151561165e57fe5b906020019060200201516000015173ffffffffffffffffffffffffffffffffffffffff1614156118da57818181518110151561169657fe5b9060200190602002015160400151151515611719576040517f08c379a000000000000000000000000000000000000000000000000000000000815260040180806020018281038252601e8152602001807f43616c6c65722068617320616c7265616479206265656e2070617965642e000081525060200191505060405180910390fd5b6000828281518110151561172957fe5b90602001906020020151602001511115156117ac576040517f08c379a000000000000000000000000000000000000000000000000000000000815260040180806020018281038252601b8152602001807f5468657265206973206e6f20496e737572656420416d6f756e742e000000000081525060200191505060405180910390fd5b6001600660008660001916600019168152602001908152602001600020828154811015156117d657fe5b906000526020600020906003020160020160006101000a81548160ff021916908315150217905550611823828281518110151561180f57fe5b906020019060200201516020015184610db6565b60006006600086600019166000191681526020019081526020016000208281548110151561184d57fe5b9060005260206000209060030201600101819055507f6e1918816dff9076c15d305d82d67f6907ca504518964946b5d118e60bdc256584846040518083600019166000191681526020018273ffffffffffffffffffffffffffffffffffffffff1673ffffffffffffffffffffffffffffffffffffffff1681526020019250505060405180910390a16118e7565b8080600101915050611630565b50505050565b600080606060008060006118ff61245d565b600060149054906101000a900460ff1615156119a9576040517f08c379a00000000000000000000000000000000000000000000000000000000081526004018080602001828103825260258152602001807f436f6e74726163742069732063757272656e746c79206e6f74206f706572617481526020017f696f6e616c00000000000000000000000000000000000000000000000000000081525060400191505060405180910390fd5b60009650349550600660008a60001916600019168152602001908152602001600020805480602002602001604051908101604052809291908181526020016000905b82821015611a995783829060005260206000209060030201606060405190810160405290816000820160009054906101000a900473ffffffffffffffffffffffffffffffffffffffff1673ffffffffffffffffffffffffffffffffffffffff1673ffffffffffffffffffffffffffffffffffffffff168152602001600182015481526020016002820160009054906101000a900460ff161515151581525050815260200190600101906119eb565b505050509450600093505b8451841015611bca578773ffffffffffffffffffffffffffffffffffffffff168585815181101515611ad257fe5b906020019060200201516000015173ffffffffffffffffffffffffffffffffffffffff161415611bbd5760019650611b2e868686815181101515611b1257fe5b906020019060200201516020015161235e90919063ffffffff16565b92506001831115611bb857611b4d60018461237a90919063ffffffff16565b9150828585815181101515611b5e57fe5b9060200190602002015160200181815250508773ffffffffffffffffffffffffffffffffffffffff166108fc839081150290604051600060405180830381858888f19350505050158015611bb6573d6000803e3d6000fd5b505b611bca565b8380600101945050611aa4565b861515611cc4576060604051908101604052808973ffffffffffffffffffffffffffffffffffffffff168152602001878152602001600015158152509050600660008a60001916600019168152602001908152602001600020819080600181540180825580915050906001820390600052602060002090600302016000909192909190915060008201518160000160006101000a81548173ffffffffffffffffffffffffffffffffffffffff021916908373ffffffffffffffffffffffffffffffffffffffff1602179055506020820151816001015560408201518160020160006101000a81548160ff0219169083151502179055505050505b7f021386e32e9a2d837a25bea7f2d1882227cc40b2e2b0f05f258f3710c9f5d0d489896040518083600019166000191681526020018273ffffffffffffffffffffffffffffffffffffffff1673ffffffffffffffffffffffffffffffffffffffff1681526020019250505060405180910390a1505050505050505050565b611d4a612393565b600060149054906101000a900460ff161515611df4576040517f08c379a00000000000000000000000000000000000000000000000000000000081526004018080602001828103825260258152602001807f436f6e74726163742069732063757272656e746c79206e6f74206f706572617481526020017f696f6e616c00000000000000000000000000000000000000000000000000000081525060400191505060405180910390fd5b600460008473ffffffffffffffffffffffffffffffffffffffff1673ffffffffffffffffffffffffffffffffffffffff16815260200190815260200160002060a060405190810160405290816000820160009054906101000a900473ffffffffffffffffffffffffffffffffffffffff1673ffffffffffffffffffffffffffffffffffffffff1673ffffffffffffffffffffffffffffffffffffffff168152602001600182018054600181600116156101000203166002900480601f016020809104026020016040519081016040528092919081815260200182805460018160011615610100020316600290048015611f2e5780601f10611f0357610100808354040283529160200191611f2e565b820191906000526020600020905b815481529060010190602001808311611f1157829003601f168201915b50505050508152602001600282015481526020016003820160009054906101000a900460ff161515151581526020016003820160019054906101000a900460ff16151515158152505090508181606001901515908115158152505080600460008573ffffffffffffffffffffffffffffffffffffffff1673ffffffffffffffffffffffffffffffffffffffff16815260200190815260200160002060008201518160000160006101000a81548173ffffffffffffffffffffffffffffffffffffffff021916908373ffffffffffffffffffffffffffffffffffffffff160217905550602082015181600101908051906020019061202c9291906123dd565b506040820151816002015560608201518160030160006101000a81548160ff02191690831515021790555060808201518160030160016101000a81548160ff02191690831515021790555090505081156120925760016002600082825401925050819055505b505050565b60008060149054906101000a900460ff16905090565b600080600460008473ffffffffffffffffffffffffffffffffffffffff1673ffffffffffffffffffffffffffffffffffffffff16815260200190815260200160002090508060030160019054906101000a900460ff16915050919050565b60006060600080600060149054906101000a900460ff1615156121bc576040517f08c379a00000000000000000000000000000000000000000000000000000000081526004018080602001828103825260258152602001807f436f6e74726163742069732063757272656e746c79206e6f74206f706572617481526020017f696f6e616c00000000000000000000000000000000000000000000000000000081525060400191505060405180910390fd5b600660008760001916600019168152602001908152602001600020805480602002602001604051908101604052809291908181526020016000905b828210156122a55783829060005260206000209060030201606060405190810160405290816000820160009054906101000a900473ffffffffffffffffffffffffffffffffffffffff1673ffffffffffffffffffffffffffffffffffffffff1673ffffffffffffffffffffffffffffffffffffffff168152602001600182015481526020016002820160009054906101000a900460ff161515151581525050815260200190600101906121f7565b50505050925060009150600090505b825181101561233c578473ffffffffffffffffffffffffffffffffffffffff1683828151811015156122e257fe5b906020019060200201516000015173ffffffffffffffffffffffffffffffffffffffff16141561232f57828181518110151561231a57fe5b9060200190602002015160200151915061233c565b80806001019150506122b4565b81935050505092915050565b6000818381151561235557fe5b04905092915050565b6000818301905082811015151561237157fe5b80905092915050565b600082821115151561238857fe5b818303905092915050565b60a060405190810160405280600073ffffffffffffffffffffffffffffffffffffffff16815260200160608152602001600081526020016000151581526020016000151581525090565b828054600181600116156101000203166002900490600052602060002090601f016020900481019282601f1061241e57805160ff191683800117855561244c565b8280016001018555821561244c579182015b8281111561244b578251825591602001919060010190612430565b5b5090506124599190612497565b5090565b606060405190810160405280600073ffffffffffffffffffffffffffffffffffffffff168152602001600081526020016000151581525090565b6124b991905b808211156124b557600081600090555060010161249d565b5090565b905600a165627a7a723058209ab454234c1a802e080b443fb8636853e6bb03ee5250add392d851b04ae9ca130029",
  "source": "pragma solidity ^0.4.25;\n\nimport \"../node_modules/openzeppelin-solidity/contracts/math/SafeMath.sol\";\n\ncontract FlightSuretyData {\n    using SafeMath for uint256;\n\n    /********************************************************************************************/\n    /*                                       DATA VARIABLES                                     */\n    /********************************************************************************************/\n\n    address private contractOwner;                                      // Account used to deploy contract\n    bool private operational = true;                                    // Blocks all state changes throughout the contract if false\n\n    struct Insured {\n        address addr;\n        uint256 insuredAmount;\n        bool isPayed;\n    }\n\n    struct Airline {\n        address addr;\n        string name;\n        uint256 etherAmount;\n        bool isRegistered;\n        bool isFunded;\n    }\n\n    address[] private airlines;\n    uint256 private totalApprovedAirlines = 0;\n\n    //list of authorized callers\n    address[] private authorizedCallers;\n\n    //mapping for all the operating airlines\n    mapping (address => Airline) private operatingAirlines;\n\n    //Not used now\n    mapping (address => uint256) balanceOf;\n\n    //mapping to store all flight insurees\n    mapping (bytes32 => Insured[]) private flightInsurees;\n\n\n    /********************************************************************************************/\n    /*                                       EVENT DEFINITIONS                                  */\n    /********************************************************************************************/\n    //fired when an Airline registers\n    event RegisterAirline(address airline, string name);\n\n    //fires when a passenger buys insurance\n    event BuyFlightInsurance(bytes32 flight, address insuree);\n\n    //Used when insuree withdraws funds\n    event InsurancePayout(bytes32 flight, address insuree);\n\n    //used when airline is funded\n    event FundAirline(address airline);\n\n    /**\n    * @dev Constructor\n    *      The deploying account becomes contractOwner\n    */\n    constructor\n                                (\n                                    address addr\n                                )\n                                public\n    {\n        contractOwner = msg.sender;\n\n        //Set first airline\n        Airline memory newAirline = Airline(addr, \"Wright Bros Bicycles\", 0, true, false);\n        airlines.push(addr);\n        operatingAirlines[addr] = newAirline;\n        totalApprovedAirlines += 1;//.add(1);\n    }\n\n    /********************************************************************************************/\n    /*                                       FUNCTION MODIFIERS                                 */\n    /********************************************************************************************/\n\n    // Modifiers help avoid duplication of code. They are typically used to validate something\n    // before a function is allowed to be executed.\n\n    /**\n    * @dev Modifier that requires the \"operational\" boolean variable to be \"true\"\n    *      This is used on all state changing functions to pause the contract in\n    *      the event there is an issue that needs to be fixed\n    */\n    modifier requireIsOperational()\n    {\n        require(operational, \"Contract is currently not operational\");\n        _;  // All modifiers require an \"_\" which indicates where the function body will be added\n    }\n\n    /**\n    * @dev Modifier that requires the \"ContractOwner\" account to be the function caller\n    */\n    modifier requireContractOwner()\n    {\n        require(msg.sender == contractOwner, \"Caller is not contract owner\");\n        _;\n    }\n\n    /********************************************************************************************/\n    /*                                       UTILITY FUNCTIONS                                  */\n    /********************************************************************************************/\n\n    /**\n    * @dev Get operating status of contract\n    *\n    * @return A bool that is the current operating status\n    */\n    function isOperational()\n                            public\n                            view\n                            returns(bool)\n    {\n        return operational;\n    }\n\n\n    /**\n    * @dev Sets contract operations on/off\n    *\n    * When operational mode is disabled, all write transactions except for this one will fail\n    */\n    function setOperatingStatus\n                            (\n                                bool mode\n                            )\n                            external\n                            requireContractOwner\n    {\n        operational = mode;\n    }\n\n\n    /**\n* @dev Sets authorized caller\n    *\n    * Set the app address for the caller\n    */\n    function authorizeCaller\n    (\n        address caller\n    )\n    external\n    requireContractOwner\n    {\n        authorizedCallers.push(caller);\n    }\n\n    /********************************************************************************************/\n    /*                                     SMART CONTRACT FUNCTIONS                             */\n    /********************************************************************************************/\n\n   /**\n    * @dev Add an airline to the registration queue\n    *      Can only be called from FlightSuretyApp contract\n    *\n    */\n    function _registerAirline\n                            (\n                                address addr,\n                                string name,\n                                bool register\n                            )\n                            requireIsOperational()\n                            external\n    {\n\n        //Hash the components to store for mapping\n        //bytes32 hashedAirline = keccak256(abi.encodePacked(index, addr, name));\n\n        Airline memory newAirline = Airline(addr, name, 0, register, false);\n        airlines.push(addr);\n        if(register){\n            totalApprovedAirlines += 1;//.add(1);\n        }\n\n        //uint256 balance = balanceOf[address];\n        operatingAirlines[addr] = newAirline;\n\n        emit RegisterAirline(addr, name);\n    }\n\n    /**\n    * @dev Vote for an airline and update registration\n    *      Can only be called from FlightSuretyApp contract\n    *\n    */\n    function _updateAirlineIsRegistered\n                                (\n                                    address addr,\n                                    bool register\n                                )\n                                requireIsOperational\n                                external\n    {\n        Airline memory updateAirline = operatingAirlines[addr];\n        updateAirline.isRegistered = register;\n\n        operatingAirlines[addr] = updateAirline;\n        if(register){\n            totalApprovedAirlines += 1;//.add(1);\n        }\n    }\n\n    /**\n    * @dev Get Airline\n    *\n    *\n    */\n    function isAirline\n                                (\n                                    address caller\n                                )\n                                external\n                                view\n                                returns(bool success)\n    {\n        Airline memory existingAirline = operatingAirlines[caller];\n        return existingAirline.addr != address(0);\n        //return true;\n    }\n\n    /**\n   * @dev Get Airline\n    *\n    *\n    */\n    function _getAirlineCount\n                            (\n                            )\n                            external\n                            view\n                            returns(uint256)\n    {\n        return  totalApprovedAirlines;\n    }\n\n    /**\n   * @dev Get Airline\n    *\n    *\n    */\n    function _getAirlineByIndex(uint256 index) external view returns(address)\n    {\n        return  airlines[index];\n    }\n\n    /**\n  * @dev Get Airline\n    *\n    *\n    */\n    function isAirlineFunded\n                        (\n                            address airline\n                        )\n                        external\n                        view\n                        returns(bool)\n    {\n        Airline storage fundedAirline = operatingAirlines[airline];\n        return  fundedAirline.isFunded;\n    }\n\n    /**\n* @dev Get Airline\n    *\n    *\n    */\n    function isAirlineRegistered\n                        (\n                            address airline\n                        )\n                        external\n                        view\n                        requireIsOperational\n                        returns(bool)\n    {\n        Airline storage fundedAirline = operatingAirlines[airline];\n        return  fundedAirline.isRegistered;\n    }\n\n\n   /**\n    * @dev Buy insurance for a flight\n    *\n    */\n    function buy\n                            (\n                                bytes32 flight,\n                                address insuree\n                            )\n                            external\n                            requireIsOperational\n                            payable\n    {\n        bool isAlreadyInsuree = false;\n        uint256 newInsuredValue = msg.value;\n\n        Insured[] memory insurees = flightInsurees[flight];\n        for(uint i=0; i < insurees.length; i++) {\n            if (insurees[i].addr == insuree) {\n                isAlreadyInsuree = true;\n                //require(contractOwner.balance > amountToPay, \"Contract does not have enough payout.\");\n                uint256 totalValue = insurees[i].insuredAmount.add(newInsuredValue);\n\n                if(totalValue > 1) {\n                    uint256 returnOverageValue = totalValue.sub(1);\n                    insurees[i].insuredAmount = totalValue;\n\n                    insuree.transfer(returnOverageValue);\n                }\n                break;\n            }\n        }\n\n        if(!isAlreadyInsuree){\n            Insured memory newInsuree = Insured(insuree, newInsuredValue, false);\n            flightInsurees[flight].push(newInsuree);\n        }\n\n        emit BuyFlightInsurance(flight, insuree);\n    }\n\n\n    /**\n    *  @dev Credits payouts to insurees\n    */\n    function _creditInsureeAmount\n                            (\n                                bytes32 flight,\n                                address passenger\n                            )\n                            external\n                            view\n                            requireIsOperational\n                            returns(uint256)\n    {\n        Insured[] memory insurees = flightInsurees[flight];\n        uint256 payout = 0;\n        for(uint i=0; i < insurees.length; i++) {\n            if (insurees[i].addr == passenger) {\n                payout = insurees[i].insuredAmount;\n                break;\n            }\n        }\n\n        return payout;\n    }\n\n    /**\n     *  @dev Credits payouts to insurees\n    */\n    function _creditInsurees\n                                (\n                                    bytes32 flight,\n                                    address passenger\n                                )\n                                requireIsOperational\n                                external\n    {\n        Insured[] memory insurees = flightInsurees[flight];\n        //Insured memory newInsuree = Insured(insuree, msg.value, false);\n        for(uint i=0; i < insurees.length; i++) {\n            if (insurees[i].addr == passenger) {\n                require(!insurees[i].isPayed, \"Caller has already been payed.\");\n                require(insurees[i].insuredAmount > 0, \"There is no Insured Amount.\");\n                flightInsurees[flight][i].isPayed = true;\n                pay(insurees[i].insuredAmount, passenger);\n                flightInsurees[flight][i].insuredAmount = 0;\n                emit InsurancePayout(flight, passenger);\n                break;\n            }\n        }\n    }\n\n\n    /**\n     *  @dev Transfers eligible payout funds to insuree\n     *\n    */\n    function pay\n                            (\n                                uint256 requiredEther,\n                                address passenger\n                            )\n                            public\n                            requireIsOperational\n                            payable\n    {\n        uint256 amountToPay = requiredEther.add(requiredEther.div(2));\n\n        require(contractOwner.balance > amountToPay, \"Contract does not have enough payout.\");\n\n        bool success = passenger.call.value(amountToPay)(\"\");\n        require(success, \"Insurance transfer to passenger failed\");\n\n    }\n\n\n\n    /**\n  * @dev Initial funding for the insurance. Unless there are too many delayed flights\n    *      resulting in insurance payouts, the contract should be self-sustaining\n    *\n    */\n    function fundAirline\n                            (\n                                address airline\n                            )\n                            external\n                            requireIsOperational\n                            payable\n    {\n        Airline memory fundedAirline = operatingAirlines[airline];\n        require(fundedAirline.isRegistered, \"Airline can only be funded if it is registered first\");\n        //require(msg.value >= 12 ether, \"Need to fund at least 10 Ether for be be participant\");\n        operatingAirlines[airline].etherAmount = fundedAirline.etherAmount.add(msg.value);\n        operatingAirlines[airline].isFunded = true;\n        operatingAirlines[airline].isRegistered = true;\n        /*if(msg.value >= 10 ether){\n            operatingAirlines[airline].isFunded;\n        }*/\n\n        emit FundAirline(airline);\n    }\n\n\n   /**\n    * @dev Initial funding for the insurance. Unless there are too many delayed flights\n    *      resulting in insurance payouts, the contract should be self-sustaining\n    *\n    */\n    function fund\n                            (\n                            )\n                            public\n                            payable\n    {\n    }\n\n    function getFlightKey\n                        (\n                            address airline,\n                            string memory flight,\n                            uint256 timestamp\n                        )\n                        pure\n                        internal\n                        returns(bytes32)\n    {\n        return keccak256(abi.encodePacked(airline, flight, timestamp));\n    }\n\n    /**\n    * @dev Fallback function for funding smart contract.\n    *\n    */\n    function()\n                            external\n                            payable\n    {\n        fund();\n    }\n\n\n}\n\n",
  "sourcePath": "/Users/shaneN/WebstormProjects/flightSurety/contracts/FlightSuretyData.sol",
  "compiler": {
    "name": "solc",
    "version": "0.4.26+commit.4563c3fc.Emscripten.clang"
  },
  "schemaVersion": "3.4.5",
  "updatedAt": "2022-05-07T15:49:13.529Z",
  "networkType": "ethereum",
  "devdoc": {
    "methods": {
      "_creditInsureeAmount(bytes32,address)": {
        "details": "Credits payouts to insurees"
      },
      "_creditInsurees(bytes32,address)": {
        "details": "Credits payouts to insurees"
      },
      "_getAirlineByIndex(uint256)": {
        "details": "Get Airline    *"
      },
      "_getAirlineCount()": {
        "details": "Get Airline    *"
      },
      "_registerAirline(address,string,bool)": {
        "details": "Add an airline to the registration queue     Can only be called from FlightSuretyApp contract    "
      },
      "_updateAirlineIsRegistered(address,bool)": {
        "details": "Vote for an airline and update registration     Can only be called from FlightSuretyApp contract    "
      },
      "authorizeCaller(address)": {
        "details": "Sets authorized caller    * Set the app address for the caller"
      },
      "buy(bytes32,address)": {
        "details": "Buy insurance for a flight    "
      },
      "fund()": {
        "details": "Initial funding for the insurance. Unless there are too many delayed flights     resulting in insurance payouts, the contract should be self-sustaining    "
      },
      "fundAirline(address)": {
        "details": "Initial funding for the insurance. Unless there are too many delayed flights     resulting in insurance payouts, the contract should be self-sustaining    "
      },
      "isAirline(address)": {
        "details": "Get Airline    *"
      },
      "isAirlineFunded(address)": {
        "details": "Get Airline    *"
      },
      "isAirlineRegistered(address)": {
        "details": "Get Airline    *"
      },
      "isOperational()": {
        "details": "Get operating status of contract",
        "return": "A bool that is the current operating status"
      },
      "pay(uint256,address)": {
        "details": "Transfers eligible payout funds to insuree    "
      },
      "setOperatingStatus(bool)": {
        "details": "Sets contract operations on/off    * When operational mode is disabled, all write transactions except for this one will fail"
      }
    }
  },
  "userdoc": {
    "methods": {}
  }
}